{
  "contractName": "MonkeyContract",
  "abi": [
    {
      "inputs": [],
      "payable": false,
      "stateMutability": "nonpayable",
      "type": "constructor"
    },
    {
      "anonymous": false,
      "inputs": [
        {
          "indexed": true,
          "internalType": "address",
          "name": "owner",
          "type": "address"
        },
        {
          "indexed": true,
          "internalType": "address",
          "name": "approved",
          "type": "address"
        },
        {
          "indexed": true,
          "internalType": "uint256",
          "name": "tokenId",
          "type": "uint256"
        }
      ],
      "name": "Approval",
      "type": "event"
    },
    {
      "anonymous": false,
      "inputs": [
        {
          "indexed": false,
          "internalType": "address",
          "name": "owner",
          "type": "address"
        },
        {
          "indexed": false,
          "internalType": "uint256",
          "name": "tokenId",
          "type": "uint256"
        }
      ],
      "name": "Minted",
      "type": "event"
    },
    {
      "anonymous": false,
      "inputs": [
        {
          "indexed": true,
          "internalType": "address",
          "name": "from",
          "type": "address"
        },
        {
          "indexed": true,
          "internalType": "address",
          "name": "to",
          "type": "address"
        },
        {
          "indexed": true,
          "internalType": "uint256",
          "name": "tokenId",
          "type": "uint256"
        }
      ],
      "name": "Transfer",
      "type": "event"
    },
    {
      "constant": true,
      "inputs": [
        {
          "internalType": "uint256",
          "name": "",
          "type": "uint256"
        }
      ],
      "name": "monkeys",
      "outputs": [
        {
          "internalType": "uint256",
          "name": "genes",
          "type": "uint256"
        },
        {
          "internalType": "uint256",
          "name": "birthtime",
          "type": "uint256"
        },
        {
          "internalType": "uint256",
          "name": "parent1Id",
          "type": "uint256"
        },
        {
          "internalType": "uint256",
          "name": "parent2Id",
          "type": "uint256"
        },
        {
          "internalType": "uint256",
          "name": "generation",
          "type": "uint256"
        }
      ],
      "payable": false,
      "stateMutability": "view",
      "type": "function"
    },
    {
      "constant": false,
      "inputs": [
        {
          "internalType": "uint256",
          "name": "tokenId",
          "type": "uint256"
        },
        {
          "internalType": "address",
          "name": "allowedAddress",
          "type": "address"
        }
      ],
      "name": "approve",
      "outputs": [],
      "payable": false,
      "stateMutability": "nonpayable",
      "type": "function"
    },
    {
      "constant": true,
      "inputs": [],
      "name": "name",
      "outputs": [
        {
          "internalType": "string",
          "name": "",
          "type": "string"
        }
      ],
      "payable": false,
      "stateMutability": "view",
      "type": "function"
    },
    {
      "constant": true,
      "inputs": [],
      "name": "symbol",
      "outputs": [
        {
          "internalType": "string",
          "name": "",
          "type": "string"
        }
      ],
      "payable": false,
      "stateMutability": "view",
      "type": "function"
    },
    {
      "constant": true,
      "inputs": [],
      "name": "totalSupply",
      "outputs": [
        {
          "internalType": "uint256",
          "name": "",
          "type": "uint256"
        }
      ],
      "payable": false,
      "stateMutability": "view",
      "type": "function"
    },
    {
      "constant": true,
      "inputs": [
        {
          "internalType": "address",
          "name": "owner",
          "type": "address"
        }
      ],
      "name": "balanceOf",
      "outputs": [
        {
          "internalType": "uint256",
          "name": "",
          "type": "uint256"
        }
      ],
      "payable": false,
      "stateMutability": "view",
      "type": "function"
    },
    {
      "constant": true,
      "inputs": [
        {
          "internalType": "uint256",
          "name": "tokenId",
          "type": "uint256"
        }
      ],
      "name": "ownerOf",
      "outputs": [
        {
          "internalType": "address",
          "name": "",
          "type": "address"
        }
      ],
      "payable": false,
      "stateMutability": "view",
      "type": "function"
    },
    {
      "constant": false,
      "inputs": [
        {
          "internalType": "address",
          "name": "_to",
          "type": "address"
        },
        {
          "internalType": "uint256",
          "name": "_tokenId",
          "type": "uint256"
        }
      ],
      "name": "transfer",
      "outputs": [],
      "payable": false,
      "stateMutability": "nonpayable",
      "type": "function"
    }
  ],
  "bytecode": "0x608060405234801561001057600080fd5b506040518060400160405280600e81526020017f43727970746f204d6f6e6b6579730000000000000000000000000000000000008152506000908051906020019061005c9291906100ae565b506040518060400160405280600381526020017f434d4f0000000000000000000000000000000000000000000000000000000000815250600190805190602001906100a89291906100ae565b50610153565b828054600181600116156101000203166002900490600052602060002090601f016020900481019282601f106100ef57805160ff191683800117855561011d565b8280016001018555821561011d579182015b8281111561011c578251825591602001919060010190610101565b5b50905061012a919061012e565b5090565b61015091905b8082111561014c576000816000905550600101610134565b5090565b90565b610b1d806101626000396000f3fe608060405234801561001057600080fd5b50600436106100885760003560e01c806395d89b411161005b57806395d89b41146101f4578063a6fb702c14610277578063a9059cbb146102d5578063febe49091461032357610088565b806306fdde031461008d57806318160ddd146101105780636352211e1461012e57806370a082311461019c575b600080fd5b610095610371565b6040518080602001828103825283818151815260200191508051906020019080838360005b838110156100d55780820151818401526020810190506100ba565b50505050905090810190601f1680156101025780820380516001836020036101000a031916815260200191505b509250505060405180910390f35b610118610413565b6040518082815260200191505060405180910390f35b61015a6004803603602081101561014457600080fd5b810190808035906020019092919050505061041d565b604051808273ffffffffffffffffffffffffffffffffffffffff1673ffffffffffffffffffffffffffffffffffffffff16815260200191505060405180910390f35b6101de600480360360208110156101b257600080fd5b81019080803573ffffffffffffffffffffffffffffffffffffffff16906020019092919050505061045a565b6040518082815260200191505060405180910390f35b6101fc6104a3565b6040518080602001828103825283818151815260200191508051906020019080838360005b8381101561023c578082015181840152602081019050610221565b50505050905090810190601f1680156102695780820380516001836020036101000a031916815260200191505b509250505060405180910390f35b6102a36004803603602081101561028d57600080fd5b8101908080359060200190929190505050610545565b604051808681526020018581526020018481526020018381526020018281526020019550505050505060405180910390f35b610321600480360360408110156102eb57600080fd5b81019080803573ffffffffffffffffffffffffffffffffffffffff16906020019092919080359060200190929190505050610588565b005b61036f6004803603604081101561033957600080fd5b8101908080359060200190929190803573ffffffffffffffffffffffffffffffffffffffff169060200190929190505050610675565b005b606060008054600181600116156101000203166002900480601f0160208091040260200160405190810160405280929190818152602001828054600181600116156101000203166002900480156104095780601f106103de57610100808354040283529160200191610409565b820191906000526020600020905b8154815290600101906020018083116103ec57829003601f168201915b5050505050905090565b6000600254905090565b60006005600083815260200190815260200160002060009054906101000a900473ffffffffffffffffffffffffffffffffffffffff169050919050565b6000600460008373ffffffffffffffffffffffffffffffffffffffff1673ffffffffffffffffffffffffffffffffffffffff168152602001908152602001600020549050919050565b606060018054600181600116156101000203166002900480601f01602080910402602001604051908101604052809291908181526020018280546001816001161561010002031660029004801561053b5780601f106105105761010080835404028352916020019161053b565b820191906000526020600020905b81548152906001019060200180831161051e57829003601f168201915b5050505050905090565b6003818154811061055257fe5b90600052602060002090600502016000915090508060000154908060010154908060020154908060030154908060040154905085565b600073ffffffffffffffffffffffffffffffffffffffff168273ffffffffffffffffffffffffffffffffffffffff1614156105c257600080fd5b3073ffffffffffffffffffffffffffffffffffffffff168273ffffffffffffffffffffffffffffffffffffffff1614156105fb57600080fd5b3373ffffffffffffffffffffffffffffffffffffffff166005600083815260200190815260200160002060009054906101000a900473ffffffffffffffffffffffffffffffffffffffff1673ffffffffffffffffffffffffffffffffffffffff161461066657600080fd5b610671338383610791565b5050565b3373ffffffffffffffffffffffffffffffffffffffff166005600084815260200190815260200160002060009054906101000a900473ffffffffffffffffffffffffffffffffffffffff1673ffffffffffffffffffffffffffffffffffffffff16146106e057600080fd5b806006600084815260200190815260200160002060006101000a81548173ffffffffffffffffffffffffffffffffffffffff021916908373ffffffffffffffffffffffffffffffffffffffff160217905550818173ffffffffffffffffffffffffffffffffffffffff163373ffffffffffffffffffffffffffffffffffffffff167f8c5be1e5ebec7d5bd14f71427d1e84f3dd0314c0f7b2291e5b200ac8c7c3b92560405160405180910390a45050565b6006600082815260200190815260200160002060006101000a81549073ffffffffffffffffffffffffffffffffffffffff0219169055816005600083815260200190815260200160002060006101000a81548173ffffffffffffffffffffffffffffffffffffffff021916908373ffffffffffffffffffffffffffffffffffffffff16021790555061086c6001600460008573ffffffffffffffffffffffffffffffffffffffff1673ffffffffffffffffffffffffffffffffffffffff1681526020019081526020016000205461095690919063ffffffff16565b50600073ffffffffffffffffffffffffffffffffffffffff168373ffffffffffffffffffffffffffffffffffffffff16146108f6576108f46001600460008673ffffffffffffffffffffffffffffffffffffffff1673ffffffffffffffffffffffffffffffffffffffff168152602001908152602001600020546109de90919063ffffffff16565b505b808273ffffffffffffffffffffffffffffffffffffffff168473ffffffffffffffffffffffffffffffffffffffff167fddf252ad1be2c89b69c2b068fc378daa952ba7f163c4a11628f55a4df523b3ef60405160405180910390a4505050565b6000808284019050838110156109d4576040517f08c379a000000000000000000000000000000000000000000000000000000000815260040180806020018281038252601b8152602001807f536166654d6174683a206164646974696f6e206f766572666c6f77000000000081525060200191505060405180910390fd5b8091505092915050565b6000610a2083836040518060400160405280601e81526020017f536166654d6174683a207375627472616374696f6e206f766572666c6f770000815250610a28565b905092915050565b6000838311158290610ad5576040517f08c379a00000000000000000000000000000000000000000000000000000000081526004018080602001828103825283818151815260200191508051906020019080838360005b83811015610a9a578082015181840152602081019050610a7f565b50505050905090810190601f168015610ac75780820380516001836020036101000a031916815260200191505b509250505060405180910390fd5b506000838503905080915050939250505056fea265627a7a72315820e2842f35a3de036532d3ebeb5010e388010f728f2df97b9986a05e4414d8afbd64736f6c634300050c0032",
  "source": "pragma solidity 0.5.12;\r\n\r\n// preparing for some functions to be restricted   - not used?\r\nimport \"./Ownable.sol\";\r\n\r\n// using safemath to rule out over- and underflow and such  - seems done\r\nimport \"./Safemath.sol\";\r\n\r\n// importing ERC721 token standard interface, all functions need to be fully created  - seems done?\r\nimport \"./IERC721.sol\";\r\n\r\ncontract MonkeyContract is IERC721 {\r\n\r\n  // using safemath, now should use uint256 for all numbers  - seems done\r\n  using SafeMath for uint256; \r\n\r\n\r\n  // State variables\r\n\r\n  // 1 name to store - will be queried by name function  - seems done\r\n  string private _name;\r\n\r\n  // 1 symbol to store - will be queried by symbol function - seems done\r\n  string private _symbol;\r\n\r\n  // storing the totalSupply - will be queried by totalSupply function - needs to be updated via a real mint function later (connect to Monkey Factory) - seems done for now\r\n  uint256 private _totalSupply;\r\n\r\n  // this struct is the blueprint for new CMOs. They will be created from it\r\n  struct CryptoMonkey {\r\n    uint256 genes;\r\n    uint256 birthtime;\r\n    uint256 parent1Id;\r\n    uint256 parent2Id;\r\n    uint256 generation;\r\n  }\r\n\r\n  // This array holds all CMOs it seems (CryptoMonkey)\r\n  CryptoMonkey[] public monkeys;\r\n\r\n\r\n  // a mapping to store each address's number of Crypto Monkeys - will be queried by balanceOf function - must update at minting (seems done) and transfer (seems done)\r\n  mapping(address => uint256) private _numberOfCMOsOfAddressMapping;\r\n\r\n  // mapping of all the tokenIds and their ownerssss - will be queried by ownerOf function - seems done\r\n  mapping (uint256 => address) private _monkeyIdsAndTheirOwnersMapping;\r\n  \r\n  // mapping of the allowed addresses for a piece - entry must be deleted when CMO is transfered - seems done\r\n  mapping (uint256 => address) private _CMO2AllowedAddressMapping;\r\n  \r\n\r\n  // Events\r\n\r\n  // Transfer event, emit after successful transfer with these parameters  - seems done - why indexed? what does it mean, do I need that?\r\n  event Transfer(address indexed from, address indexed to, uint256 indexed tokenId);\r\n\r\n  // Approval event, emit after successful approval with these parameters  - implement \"you can transfer my CMO - functionality\"\r\n  event Approval(address indexed owner, address indexed approved, uint256 indexed tokenId);\r\n\r\n  // Minted event, emit after successful minting with these parameters  -  seems done\r\n  event Minted (address owner, uint256 tokenId);\r\n\r\n\r\n\r\n  // Constructor function, is setting _name, and _symbol - seems done\r\n\r\n  constructor () public {\r\n    _name = \"Crypto Monkeys\";\r\n    _symbol = \"CMO\";       \r\n  } \r\n\r\n\r\n  // Functions\r\n\r\n  // this funciton is going to be used for creating gen0 monkeys and also for creating monkeys from combining monkeys, returns monkey ID (tokenId?) - connect / fix / finish\r\n  function _createMonkey (            \r\n      uint256 _parent1Id,\r\n      uint256 _parent2Id,\r\n      uint256 _generation,\r\n      uint256 _genes,     \r\n      address _owner\r\n    ) private returns (uint256) {\r\n\r\n    // uses the CryptoMonkey struct as template and creates a newMonkey from it\r\n    CryptoMonkey memory newMonkey = CryptoMonkey ({\r\n      parent1Id: uint256(_parent1Id),\r\n      parent2Id: uint256(_parent2Id),\r\n      generation: uint256(_generation), \r\n      genes: _genes,\r\n      birthtime: uint256(now)  \r\n    });\r\n\r\n    // the push function returns the length of the array, so we use that directly and save it as the ID, starting with 0\r\n    uint256 newMonkeyId = monkeys.push(newMonkey) -1;\r\n\r\n\r\n  }\r\n \r\n\r\n  // allows another address to take / move your CMO\r\n  function approve(uint256 tokenId, address allowedAddress) public {   \r\n\r\n    // requires that the msg.sender is the owner of the CMO to be moved\r\n    require (_monkeyIdsAndTheirOwnersMapping[tokenId] == msg.sender);\r\n\r\n    // stores the allowed address into the mapping for it, with the monkey being the key\r\n    _CMO2AllowedAddressMapping[tokenId] = allowedAddress;\r\n\r\n    emit Approval(msg.sender, allowedAddress, tokenId); \r\n\r\n  }\r\n\r\n  \r\n  // Returns the name of the token. - seems done\r\n  function name() external view returns (string memory){\r\n    return _name;\r\n  }\r\n\r\n  \r\n  // Returns the symbol of the token. - seems done  \r\n  function symbol() external view returns (string memory){\r\n    return _symbol;\r\n  }\r\n\r\n  // query the totalSupply - seems done\r\n  function totalSupply() external view returns (uint256){\r\n    return _totalSupply;\r\n  }\r\n\r\n  // Returns the number of tokens in \"owner\" 's account. - seems done\r\n  function balanceOf(address owner) external view returns (uint256){\r\n    return _numberOfCMOsOfAddressMapping[owner];\r\n  }\r\n  \r\n  // returns the owner of given tokenId, which is stored in the _monkeyIdsAndTheirOwnersMapping at the [tokenId] position - seems done\r\n  function ownerOf(uint256 tokenId) external view returns (address){    \r\n    return _monkeyIdsAndTheirOwnersMapping[tokenId];\r\n  }\r\n\r\n  /*   Minting is not needed anymore it seems, as we are building 2 create functions  \r\n\r\n  function mint () public onlyOwner{  \r\n    // declaring tokenId variable, the variable has only the scope of this function and will dissolve after running it, but...\r\n    uint256 tokenId;\r\n\r\n    // ... we set the tokenId for this token that is being minted to the amount of the _totalSupply (first CMO will have tokenId = 0, and so on) and then..\r\n    tokenId = _totalSupply;\r\n\r\n    // ... save this tokenId to te _monkeyIdsAndTheirOwnersMapping where we keep all of the tokenIds, \r\n    // and assign an owner to them, which at the moment of minting is the msg.sender\r\n    _monkeyIdsAndTheirOwnersMapping[tokenId] = msg.sender;\r\n\r\n    // adds 1 to the _numberOfCMOsOfAddressMapping, where we store all the addresses that own Crypto Monkeys and the amount of them\r\n    _numberOfCMOsOfAddressMapping[msg.sender].add(1);\r\n\r\n    // we update the _totalSupply (as we use this variable to generate the tokenIds, this will never go down, because that would create double ids, etc. \r\n    // So if we want a burning function, just transfer to a burn address, will still count towards totalSupply.  \r\n    // We could also create another uint256 that keeps track of how many CMOs are in that burn address, \r\n    // and then substract that number from totalSupply into another uint256 variable, so that we know how many are in circulation, unburned. Or similar.)\r\n    _totalSupply = _totalSupply.add(1);\r\n\r\n    // emitting the Minted event, logging the minting address (msg.sender) and the tokenId of the CMO that was minted\r\n    emit Minted (msg.sender, tokenId);\r\n\r\n  }\r\n*/\r\n  /* @dev Transfers `tokenId` token from `msg.sender` to `to`.\r\n  *\r\n  * Requirements:\r\n  *\r\n  * - `to` cannot be the zero address. - seems done\r\n  * - `to` can not be the contract address.  seems done\r\n  * - `tokenId` token must be owned by `msg.sender`. - seems done\r\n  *\r\n  * Emits a {Transfer} event.\r\n  */\r\n\r\n  function transfer (address _to, uint256 _tokenId) external {\r\n\r\n    //`to` cannot be the zero address. \r\n    require (_to != address(0));\r\n\r\n    // to` can not be the contract address.\r\n    require (_to != address(this));\r\n\r\n    // `tokenId` token must be owned by `msg.sender`\r\n    require (_monkeyIdsAndTheirOwnersMapping[_tokenId] == msg.sender);\r\n\r\n    _transferCallfromInside(msg.sender, _to, _tokenId);\r\n\r\n  } \r\n    \r\n  function _transferCallfromInside (address _from, address _to, uint256 _tokenId) internal {\r\n    \r\n    // deleting any allowed address for the transfered CMO\r\n    delete _CMO2AllowedAddressMapping[_tokenId];\r\n\r\n    // transferring, i.e. changing ownership entry in the _monkeyIdsAndTheirOwnersMapping for the tokenId\r\n    _monkeyIdsAndTheirOwnersMapping[_tokenId] = _to;  \r\n\r\n    // updating \"balance\" of address in _numberOfCMOsOfAddressMapping, 'to' address has 1 CMO more\r\n    _numberOfCMOsOfAddressMapping[_to].add(1);\r\n\r\n    // updating \"balance\" of address in _numberOfCMOsOfAddressMapping, sender has 1 CMO less\r\n\r\n    if (_from != address(0)) {\r\n      _numberOfCMOsOfAddressMapping[_from].sub(1);\r\n    }\r\n        \r\n    // what is with try and catch? XXX\r\n    //catch (err) {\r\n    //  console.log(\"Error is: \" + err);\r\n    //}\r\n\r\n    emit Transfer (_from, _to, _tokenId);\r\n  }\r\n\r\n\r\n\r\n\r\n\r\n}",
  "sourcePath": "D:\\8 Github\\academy-kitties-template\\contracts\\Monkeycontract.sol",
  "compiler": {
    "name": "solc",
    "version": "0.5.12+commit.7709ece9.Emscripten.clang"
  },
  "schemaVersion": "3.2.0",
  "updatedAt": "2020-11-23T20:48:22.055Z",
  "networkType": "ethereum",
  "devdoc": {
    "methods": {}
  },
  "userdoc": {
    "methods": {}
  }
}