{
  "contractName": "MonkeyContract",
  "abi": [
    {
      "inputs": [],
      "payable": false,
      "stateMutability": "nonpayable",
      "type": "constructor"
    },
    {
      "anonymous": false,
      "inputs": [
        {
          "indexed": true,
          "internalType": "address",
          "name": "owner",
          "type": "address"
        },
        {
          "indexed": true,
          "internalType": "address",
          "name": "approved",
          "type": "address"
        },
        {
          "indexed": true,
          "internalType": "uint256",
          "name": "tokenId",
          "type": "uint256"
        }
      ],
      "name": "Approval",
      "type": "event"
    },
    {
      "anonymous": false,
      "inputs": [
        {
          "indexed": false,
          "internalType": "address",
          "name": "owner",
          "type": "address"
        },
        {
          "indexed": false,
          "internalType": "uint256",
          "name": "tokenId",
          "type": "uint256"
        }
      ],
      "name": "Minted",
      "type": "event"
    },
    {
      "anonymous": false,
      "inputs": [
        {
          "indexed": true,
          "internalType": "address",
          "name": "from",
          "type": "address"
        },
        {
          "indexed": true,
          "internalType": "address",
          "name": "to",
          "type": "address"
        },
        {
          "indexed": true,
          "internalType": "uint256",
          "name": "tokenId",
          "type": "uint256"
        }
      ],
      "name": "Transfer",
      "type": "event"
    },
    {
      "constant": true,
      "inputs": [],
      "name": "name",
      "outputs": [
        {
          "internalType": "string",
          "name": "tokenName",
          "type": "string"
        }
      ],
      "payable": false,
      "stateMutability": "view",
      "type": "function"
    },
    {
      "constant": true,
      "inputs": [],
      "name": "symbol",
      "outputs": [
        {
          "internalType": "string",
          "name": "tokenSymbol",
          "type": "string"
        }
      ],
      "payable": false,
      "stateMutability": "view",
      "type": "function"
    },
    {
      "constant": true,
      "inputs": [],
      "name": "totalSupply",
      "outputs": [
        {
          "internalType": "uint256",
          "name": "total",
          "type": "uint256"
        }
      ],
      "payable": false,
      "stateMutability": "view",
      "type": "function"
    },
    {
      "constant": true,
      "inputs": [
        {
          "internalType": "address",
          "name": "owner",
          "type": "address"
        }
      ],
      "name": "balanceOf",
      "outputs": [
        {
          "internalType": "uint256",
          "name": "balance",
          "type": "uint256"
        }
      ],
      "payable": false,
      "stateMutability": "view",
      "type": "function"
    },
    {
      "constant": true,
      "inputs": [
        {
          "internalType": "uint256",
          "name": "tokenId",
          "type": "uint256"
        }
      ],
      "name": "ownerOf",
      "outputs": [
        {
          "internalType": "address",
          "name": "owner",
          "type": "address"
        }
      ],
      "payable": false,
      "stateMutability": "view",
      "type": "function"
    },
    {
      "constant": false,
      "inputs": [],
      "name": "mint",
      "outputs": [],
      "payable": true,
      "stateMutability": "payable",
      "type": "function"
    },
    {
      "constant": false,
      "inputs": [
        {
          "internalType": "address",
          "name": "to",
          "type": "address"
        },
        {
          "internalType": "uint256",
          "name": "tokenId",
          "type": "uint256"
        }
      ],
      "name": "transfer",
      "outputs": [],
      "payable": false,
      "stateMutability": "nonpayable",
      "type": "function"
    }
  ],
  "bytecode": "0x608060405234801561001057600080fd5b506040518060400160405280600e81526020017f43727970746f204d6f6e6b6579730000000000000000000000000000000000008152506000908051906020019061005c9291906100b6565b506040518060400160405280600381526020017f434d4f0000000000000000000000000000000000000000000000000000000000815250600190805190602001906100a89291906100b6565b50600060028190555061015b565b828054600181600116156101000203166002900490600052602060002090601f016020900481019282601f106100f757805160ff1916838001178555610125565b82800160010185558215610125579182015b82811115610124578251825591602001919060010190610109565b5b5090506101329190610136565b5090565b61015891905b8082111561015457600081600090555060010161013c565b5090565b90565b6109ea8061016a6000396000f3fe6080604052600436106100705760003560e01c80636352211e1161004e5780636352211e1461013a57806370a08231146101b557806395d89b411461021a578063a9059cbb146102aa57610070565b806306fdde03146100755780631249c58b1461010557806318160ddd1461010f575b600080fd5b34801561008157600080fd5b5061008a610305565b6040518080602001828103825283818151815260200191508051906020019080838360005b838110156100ca5780820151818401526020810190506100af565b50505050905090810190601f1680156100f75780820380516001836020036101000a031916815260200191505b509250505060405180910390f35b61010d6103a7565b005b34801561011b57600080fd5b506101246104f3565b6040518082815260200191505060405180910390f35b34801561014657600080fd5b506101736004803603602081101561015d57600080fd5b81019080803590602001909291905050506104fd565b604051808273ffffffffffffffffffffffffffffffffffffffff1673ffffffffffffffffffffffffffffffffffffffff16815260200191505060405180910390f35b3480156101c157600080fd5b50610204600480360360208110156101d857600080fd5b81019080803573ffffffffffffffffffffffffffffffffffffffff16906020019092919050505061053a565b6040518082815260200191505060405180910390f35b34801561022657600080fd5b5061022f610583565b6040518080602001828103825283818151815260200191508051906020019080838360005b8381101561026f578082015181840152602081019050610254565b50505050905090810190601f16801561029c5780820380516001836020036101000a031916815260200191505b509250505060405180910390f35b3480156102b657600080fd5b50610303600480360360408110156102cd57600080fd5b81019080803573ffffffffffffffffffffffffffffffffffffffff16906020019092919080359060200190929190505050610625565b005b606060008054600181600116156101000203166002900480601f01602080910402602001604051908101604052809291908181526020018280546001816001161561010002031660029004801561039d5780601f106103725761010080835404028352916020019161039d565b820191906000526020600020905b81548152906001019060200180831161038057829003601f168201915b5050505050905090565b67016345785d8a00003410156103bc57600080fd5b60006002549050336004600083815260200190815260200160002060006101000a81548173ffffffffffffffffffffffffffffffffffffffff021916908373ffffffffffffffffffffffffffffffffffffffff1602179055506104686001600360003373ffffffffffffffffffffffffffffffffffffffff1673ffffffffffffffffffffffffffffffffffffffff1681526020019081526020016000205461082390919063ffffffff16565b5061047f600160025461082390919063ffffffff16565b6002819055507f30385c845b448a36257a6a1716e6ad2e1bc2cbe333cde1e69fe849ad6511adfe3382604051808373ffffffffffffffffffffffffffffffffffffffff1673ffffffffffffffffffffffffffffffffffffffff1681526020018281526020019250505060405180910390a150565b6000600254905090565b60006004600083815260200190815260200160002060009054906101000a900473ffffffffffffffffffffffffffffffffffffffff169050919050565b6000600360008373ffffffffffffffffffffffffffffffffffffffff1673ffffffffffffffffffffffffffffffffffffffff168152602001908152602001600020549050919050565b606060018054600181600116156101000203166002900480601f01602080910402602001604051908101604052809291908181526020018280546001816001161561010002031660029004801561061b5780601f106105f05761010080835404028352916020019161061b565b820191906000526020600020905b8154815290600101906020018083116105fe57829003601f168201915b5050505050905090565b600073ffffffffffffffffffffffffffffffffffffffff168273ffffffffffffffffffffffffffffffffffffffff16141561065f57600080fd5b3373ffffffffffffffffffffffffffffffffffffffff166004600083815260200190815260200160002060009054906101000a900473ffffffffffffffffffffffffffffffffffffffff1673ffffffffffffffffffffffffffffffffffffffff16146106ca57600080fd5b816004600083815260200190815260200160002060006101000a81548173ffffffffffffffffffffffffffffffffffffffff021916908373ffffffffffffffffffffffffffffffffffffffff16021790555061076f6001600360008573ffffffffffffffffffffffffffffffffffffffff1673ffffffffffffffffffffffffffffffffffffffff1681526020019081526020016000205461082390919063ffffffff16565b506107c36001600360003373ffffffffffffffffffffffffffffffffffffffff1673ffffffffffffffffffffffffffffffffffffffff168152602001908152602001600020546108ab90919063ffffffff16565b50808273ffffffffffffffffffffffffffffffffffffffff163373ffffffffffffffffffffffffffffffffffffffff167fddf252ad1be2c89b69c2b068fc378daa952ba7f163c4a11628f55a4df523b3ef60405160405180910390a45050565b6000808284019050838110156108a1576040517f08c379a000000000000000000000000000000000000000000000000000000000815260040180806020018281038252601b8152602001807f536166654d6174683a206164646974696f6e206f766572666c6f77000000000081525060200191505060405180910390fd5b8091505092915050565b60006108ed83836040518060400160405280601e81526020017f536166654d6174683a207375627472616374696f6e206f766572666c6f7700008152506108f5565b905092915050565b60008383111582906109a2576040517f08c379a00000000000000000000000000000000000000000000000000000000081526004018080602001828103825283818151815260200191508051906020019080838360005b8381101561096757808201518184015260208101905061094c565b50505050905090810190601f1680156109945780820380516001836020036101000a031916815260200191505b509250505060405180910390fd5b506000838503905080915050939250505056fea265627a7a72315820446df677f09f5c1c55570aac22cf9f530480bc63aa37a25012c8d68fcf06ea4664736f6c634300050c0032",
  "source": "pragma solidity 0.5.12;\r\n\r\n// preparing for some functions to be restricted   - not used?\r\nimport \"./Ownable.sol\";\r\n\r\n// using safemath to rule out over- and underflow and such  - seems done\r\nimport \"./Safemath.sol\";\r\n\r\n// importing ERC721 token standard interface, all functions need to be fully created  - implement\r\nimport \"./IERC721.sol\";\r\n\r\ncontract MonkeyContract is IERC721 {\r\n\r\n  // using safemath, now should use uint256 for all numbers  - seems done\r\n  using SafeMath for uint256; \r\n\r\n\r\n  // State variables\r\n\r\n  // 1 name to store - will be queried by name function  - seems done\r\n  string private _name;\r\n\r\n  // 1 symbol to store - will be queried by symbol function - seems done\r\n  string private _symbol;\r\n\r\n  // storing the totalSupply - will be queried by totalSupply function - needs to be updated via a real mint function later (connect to Monkey Factory) - done for now\r\n  uint256 private _totalSupply;\r\n\r\n  // a mapping to store each address's number of Crypto Monkeys - will be queried by balanceOf function - must update at minting (seems done) and transfer (seems done)\r\n  mapping(address => uint256) private _numberOfCMOsOfAddressMapping;\r\n \r\n  // mapping of all the tokenIDs and their ownerssss - will be queried by ownerOf function - seems done\r\n  mapping (uint256 => address) private _monkeyIdsAndTheirOwnersMapping;\r\n\r\n \r\n\r\n  // Events\r\n\r\n  // Transfer event, emit after successful transfer with these parameters  - seems done - why indexed? what does it mean, do I need that?\r\n  event Transfer(address indexed from, address indexed to, uint256 indexed tokenId);\r\n\r\n  // Approval event, emit after successful approval with these parameters  - implement \"you can transfer my CMO - functionality\"\r\n  // event Approval(address indexed owner, address indexed approved, uint256 indexed tokenId);\r\n\r\n  // Minted event, emit after successful minting with these parameters  -  seems done\r\n  event Minted (address owner, uint256 tokenId);\r\n\r\n\r\n\r\n  // Constructor function, is setting _name, _symbol and _totalSupply  - seems done\r\n\r\n  constructor () public {\r\n    _name = \"Crypto Monkeys\";\r\n    _symbol = \"CMO\";\r\n    _totalSupply = 0;    \r\n  } \r\n\r\n\r\n  // Functions\r\n\r\n  \r\n  // Returns the name of the token. - seems done\r\n  function name() external view returns (string memory tokenName){\r\n    return _name;\r\n  }\r\n\r\n  \r\n  // Returns the symbol of the token. - seems done  \r\n  function symbol() external view returns (string memory tokenSymbol){\r\n    return _symbol;\r\n  }\r\n\r\n  // query the totalSupply - seems done\r\n  function totalSupply() external view returns (uint256 total){\r\n    return _totalSupply;\r\n  }\r\n\r\n  // Returns the number of tokens in ``owner``'s account. - seems done\r\n  function balanceOf(address owner) external view returns (uint256 balance){\r\n    return _numberOfCMOsOfAddressMapping[owner];\r\n  }\r\n  \r\n  // returns the owner of given tokenId, which is stored in the _monkeyIdsAndTheirOwnersMapping at the [tokenId] position - seems done\r\n  function ownerOf(uint256 tokenId) external view returns (address owner){    \r\n    return _monkeyIdsAndTheirOwnersMapping[tokenId];\r\n  }\r\n\r\n  /*  need mint function.. needs to generate new ERC721, i.e.  - how can I store the ETH amount that was paid in the event I emit? what data type is ether?\r\n  generate tokenId, - seems done\r\n  store it and assign it to the owner in a mapping  - seems done\r\n  make transferable  - seems done, just change owner via transfer function in the _monkeyIdsAndTheirOwnersMapping\r\n  emit Minted - seems done\r\n */\r\n  function mint () public payable {\r\n    // requires payment of 0.1 ether to use this function\r\n    require(msg.value >= 0.1 ether);\r\n\r\n    // declaring tokenId variable, the variable has only the scope of this function and will dissolve after running it, but...\r\n    uint256 tokenId;\r\n\r\n    // ... we set the tokenId for this token that is being minted to the amount of the _totalSupply (first CMO will have tokenId = 0, and so on) and then..\r\n    tokenId = _totalSupply;\r\n\r\n    // ... save this tokenId to te _monkeyIdsAndTheirOwnersMapping where we keep all of the tokenIds, \r\n    // and assign and owner to them, which at the moment of minting is the msg.sender\r\n    _monkeyIdsAndTheirOwnersMapping[tokenId] = msg.sender;\r\n\r\n    // then we add 1 to the _numberOfCMOsOfAddressMapping, where we store all the addresses that own Crypto Monkeys and the amount of them\r\n    _numberOfCMOsOfAddressMapping[msg.sender].add(1);\r\n\r\n    // we update the _totalSupply (as we use this variable to generate the tokenIds, this will never go down, because that would create double ids, etc. \r\n    // So if we want a burning function, just transfer to a burn address, will still count towards totalSupply.  \r\n    // We could also create another uint256 that keeps track of how many  CMOs are in that burn address, \r\n    // and then substract that number from totalSupply, so that we know how many are in circulation, unburned. Or similar.)\r\n    _totalSupply = _totalSupply.add(1);\r\n\r\n    // emitting the Minted event, logging the minting address (msg.sender) and the tokenId of the CMO that was minted\r\n    emit Minted (msg.sender, tokenId);\r\n\r\n  }\r\n\r\n  /* @dev Transfers `tokenId` token from `msg.sender` to `to`.\r\n  *\r\n  * Requirements:\r\n  *\r\n  * - `to` cannot be the zero address. - seems done\r\n  * - `to` can not be the contract address. - How do I find contract address? Where do we store it?\r\n  * - `tokenId` token must be owned by `msg.sender`. - seems done\r\n  *\r\n  * Emits a {Transfer} event.\r\n  */\r\n\r\n  function transfer(address to, uint256 tokenId) public {\r\n\r\n    //`to` cannot be the zero address. \r\n    require (to != address(0));\r\n\r\n    // FIX, need contract address / where to find it after generated\r\n    // require (to != );\r\n\r\n    // `tokenId` token must be owned by `msg.sender`\r\n    require (_monkeyIdsAndTheirOwnersMapping[tokenId] == msg.sender);\r\n\r\n    // transferring, i.e. changing ownership entry in the _monkeyIdsAndTheirOwnersMapping for the tokenId\r\n    _monkeyIdsAndTheirOwnersMapping[tokenId] = to;\r\n\r\n    // updating \"balance\" of address in _numberOfCMOsOfAddressMapping, 'to' address has 1 CMO more\r\n    _numberOfCMOsOfAddressMapping[to].add(1);\r\n\r\n    // updating \"balance\" of address in _numberOfCMOsOfAddressMapping, sender has 1 CMO less\r\n    _numberOfCMOsOfAddressMapping[msg.sender].sub(1);\r\n\r\n    emit Transfer (msg.sender, to, tokenId);\r\n\r\n  } \r\n    \r\n\r\n\r\n\r\n\r\n}",
  "sourcePath": "D:\\8 Github\\academy-kitties-template\\contracts\\Monkeycontract.sol",
  "compiler": {
    "name": "solc",
    "version": "0.5.12+commit.7709ece9.Emscripten.clang"
  },
  "schemaVersion": "3.2.0",
  "updatedAt": "2020-11-13T18:31:58.234Z",
  "networkType": "ethereum",
  "devdoc": {
    "methods": {}
  },
  "userdoc": {
    "methods": {}
  }
}